{
  "_format": "hh-sol-artifact-1",
  "contractName": "VendingMachine",
  "sourceName": "contracts/VendingMachine.sol",
  "abi": [
    {
      "inputs": [],
      "stateMutability": "nonpayable",
      "type": "constructor"
    },
    {
      "inputs": [
        {
          "internalType": "address",
          "name": "",
          "type": "address"
        }
      ],
      "name": "cokeBalances",
      "outputs": [
        {
          "internalType": "uint256",
          "name": "",
          "type": "uint256"
        }
      ],
      "stateMutability": "view",
      "type": "function"
    },
    {
      "inputs": [],
      "name": "getVendingMachineBalance",
      "outputs": [
        {
          "internalType": "uint256",
          "name": "",
          "type": "uint256"
        }
      ],
      "stateMutability": "view",
      "type": "function"
    },
    {
      "inputs": [],
      "name": "owner",
      "outputs": [
        {
          "internalType": "address",
          "name": "",
          "type": "address"
        }
      ],
      "stateMutability": "view",
      "type": "function"
    },
    {
      "inputs": [
        {
          "internalType": "uint256",
          "name": "amount",
          "type": "uint256"
        }
      ],
      "name": "purchase",
      "outputs": [],
      "stateMutability": "payable",
      "type": "function"
    },
    {
      "inputs": [
        {
          "internalType": "uint256",
          "name": "amount",
          "type": "uint256"
        }
      ],
      "name": "restock",
      "outputs": [],
      "stateMutability": "nonpayable",
      "type": "function"
    }
  ],
  "bytecode": "0x608060405234801561001057600080fd5b50600080546001600160a01b0319163317815530815260016020526040902060649055610424806100426000396000f3fe60806040526004361061005a5760003560e01c8063e7644d3411610043578063e7644d34146100d8578063efef39a114610104578063fb8884921461011757600080fd5b80638da5cb5b1461005f578063c21a702a146100b6575b600080fd5b34801561006b57600080fd5b5060005461008c9073ffffffffffffffffffffffffffffffffffffffff1681565b60405173ffffffffffffffffffffffffffffffffffffffff90911681526020015b60405180910390f35b3480156100c257600080fd5b506100d66100d1366004610326565b610144565b005b3480156100e457600080fd5b50306000908152600160205260409020545b6040519081526020016100ad565b6100d6610112366004610326565b6101d7565b34801561012357600080fd5b506100f661013236600461033f565b60016020526000908152604090205481565b60005473ffffffffffffffffffffffffffffffffffffffff1633146101b05760405162461bcd60e51b815260206004820152601b60248201527f4f6e6c7920746865206f776e65722063616e20726573746f636b2e000000000060448201526064015b60405180910390fd5b30600090815260016020526040812080548392906101cf9084906103ab565b909155505050565b6101e981671bc16d674ec800006103c4565b34101561025e5760405162461bcd60e51b815260206004820152602560248201527f596f75206d75737420706179206174206c65617374203220455448207065722060448201527f646f6e757400000000000000000000000000000000000000000000000000000060648201526084016101a7565b306000908152600160205260409020548111156102e35760405162461bcd60e51b815260206004820152603460248201527f4e6f7420656e6f75676820646f6e75747320696e2073746f636b20746f20636f60448201527f6d706c657465207468697320707572636861736500000000000000000000000060648201526084016101a7565b30600090815260016020526040812080548392906103029084906103db565b909155505033600090815260016020526040812080548392906101cf9084906103ab565b60006020828403121561033857600080fd5b5035919050565b60006020828403121561035157600080fd5b813573ffffffffffffffffffffffffffffffffffffffff8116811461037557600080fd5b9392505050565b7f4e487b7100000000000000000000000000000000000000000000000000000000600052601160045260246000fd5b808201808211156103be576103be61037c565b92915050565b80820281158282048414176103be576103be61037c565b818103818111156103be576103be61037c56fea264697066735822122020d9f58350f2735d960b4c19a359d0a37d2c588f95ef4c96ca83d1c2c1b09a8864736f6c63430008160033",
  "linkReferences": {},
  "deployedLinkReferences": {}
}